:020000040800F2
:10000000380500209D010008453B0008473B0008DB
:1000100000000000000000000000000000000000E0
:100020000000000000000000000000004B3B000842
:1000300000000000000000004D3B00084F3B00089E
:10004000CD010008CD010008CD010008CD01000858
:10005000CD010008CD010008A3310008CD01000842
:10006000CD010008CD010008CD010008CD01000838
:10007000CD010008CD010008CD010008CD01000828
:10008000632E0008CD01000800000000CD0100082B
:10009000CD010008CD010008CD010008CD01000808
:1000A000CD010008CD010008CD010008A9300008ED
:1000B000CD01000800000000CD0100080000000094
:1000C00000F002F800F03EF80CA030C80838241800
:1000D0002D18A246671EAB4654465D46AC4201D180
:1000E00000F030F87E460F3E0FCCB6460126334274
:1000F00000D0FB1AA246AB4633431847DC40000051
:10010000FC400000103A02D378C878C1FAD85207F0
:1001100001D330C830C101D504680C6070470000BD
:100120000023002400250026103A01D378C1FBD813
:10013000520700D330C100D50B6070471FB51FBDFB
:1001400010B510BD03F015FE1146FFF7F7FF03F0E1
:10015000F1FC03F02DFE03B4FFF7F2FF03BC03F044
:1001600033FE000070B505460C46164602E00FCC83
:100170000FC5103E102EFAD2082E02D303CC03C5B1
:10018000083E042E07D301CC01C5361F03E02178B9
:100190002970641C6D1C761EF9D270BD0F4880F367
:1001A00008880F480168090E0E4A914205D10E4891
:1001B0000E4901600E480F4901600F4880470F4803
:1001C0000047FEE7FEE7FEE7FEE7FEE7FEE700008A
:1001D0000B480C490C4A0D4B7047000038050020B5
:1001E000040000001F000000181002400100000081
:1001F0000000014000000000172B0008C1000008AB
:100200003801002038050020380300203803002082
:100210000168A84A114001600021016041608160CD
:10022000C160A549884208D1A349083949680F220D
:100230001143A14A083A516094E09F491431884221
:1002400008D19D4908394968F02211439A4A083A71
:10025000516087E098492831884209D19649083988
:1002600049680F2212021143934A083A516079E01B
:1002700091493C31884209D18F49083949680F2298
:10028000120311438C4A083A51606BE08A4950319D
:10029000884209D18849083949680F22120411435C
:1002A000854A083A51605DE083496431884209D14A
:1002B0008149083949680F22120511437E4A083ADC
:1002C00051604FE07C497831884209D17A49083938
:1002D00049680F2212061143774A083A516041E0FB
:1002E0007649884208D17549083949680F22114377
:1002F000724A083A516035E070491431884208D199
:100300006E4908394968F02211436C4A083A516035
:1003100028E06A492831884209D168490839496882
:100320000F2212021143654A083A51601AE06349EC
:100330003C31884209D16149083949680F221203CA
:1003400011435E4A083A51600CE05C4950318842E2
:1003500008D15A49083949680F2212041143574AF3
:10036000083A5160704710B500220268544B1A4099
:100370000C6A8B6823430C6923434C6923438C69C3
:100380002343CC6923434C6A23438C6A23431A4397
:100390000260CB6843600B6883604B68C36010BD2C
:1003A0000021016041608160C16001614161816142
:1003B000C1610162416281627047002904D0026814
:1003C00001231A43026003E002683A4B1A400260BC
:1003D000704710B5384A083A904200D100E000BF9B
:1003E000A82212580B0F9C000F23A3409A43A82366
:1003F0001A50A82212580B011B091A43A8231A509D
:1004000010BD416070470146486880B27047002ABD
:1004100003D003680B43036002E003688B4303606F
:10042000704701460020002201231B070B40002BD0
:1004300003D0224B083B1A6802E01F4B083B1A68A6
:1004400013460B40002B01D0012000E00020704734
:10045000012109070140002903D0184908394860E3
:1004600002E0154908394860704701460020002223
:1004700001231B070B40002B03D0104B083B1A68CD
:1004800002E00D4B083B1A6813460B40002B01D0CD
:10049000012000E0002070470121090701400029E8
:1004A00003D006490839486002E00349083948602A
:1004B00070470000FEFF00000800024008040240F0
:1004C0000F80FFFF01460020FE4A106840084000F0
:1004D00002460A431046FB4A10607047002806D0C7
:1004E000F849096810221143F64A116005E0F54900
:1004F000096810229143F34A116070470020F149C6
:10050000096820221140002901D0012000E00020CC
:100510007047EC48006980210840002804D0EA4870
:10052000E8494860E94848607047E648006980212A
:100530000843E449086170470420E249C968C907D3
:10054000C90F002901D0012010E0DE49C96810223E
:100550001140002901D0022008E0DA49C9680422CC
:100560001140002901D0032000E00420704710B59D
:1005700003460424FFF7E0FF044603E0FFF7DCFF37
:1005800004465B1E012C01D1002BF7D1002B00D1BA
:100590000524204610BD30B5044604250B20000478
:1005A000FFF7E5FF0546042D17D1C6480069022173
:1005B0000843C44908610846446100694021084372
:1005C000C04908610B200004FFF7D1FF0546BD4874
:1005D000006902218843BB490861284630BD10B537
:1005E00004240B200004FFF7C2FF0446042C16D19C
:1005F000B448006904210843B2490861084600690B
:1006000040210843AF4908610B200004FFF7AFFF0A
:100610000446AC48006904218843AA490861204681
:1006200010BD78B506460C460425002000900B202E
:100630000004FFF79CFF0546042D24D1A148006962
:10064000012108439F49086134800B200004FFF713
:100650008EFF0546042D10D1B01C0090200C00998F
:1006600008800B200004FFF782FF054695480069CB
:10067000400840009349086105E09248006940083D
:10068000400090490861284678BD70B504460D4683
:1006900004260B200004FFF76AFF0646042E11D142
:1006A00088480069012108438649086125800B209C
:1006B0000004FFF75CFF06468248006940084000DE
:1006C00080490861304670BD7E48006901214902B9
:1006D0000840002804D17C487A4988607B488860BB
:1006E00070477848006901214902884375490861CB
:1006F0007047744800690121490308437149086142
:10070000704700206F49C96906221140002901D0B5
:10071000012000E00020704730B5AA250424FFF72F
:10072000F0FF002800D000250B200004FFF71FFF7A
:100730000446042C36D163480069202108436149EE
:10074000086108460069402108435E4908610B20A2
:100750000004FFF70CFF0446042C1BD15948006924
:100760002021884357490861084600691021084341
:1007700054490861564805800B200004FFF7F7FE36
:100780000446052C0ED04F480069102188434D497E
:10079000086107E0052C05D04A480069102188430C
:1007A00048490861204630BDFCB50446494E3746ED
:1007B0003046019000900425E443E6B22004070E81
:1007C0002002000E0190200E00900B200004FFF785
:1007D000CEFE0546042D3BD13A480069102108435E
:1007E00038490861FF2E06D0394806810B200004E5
:1007F000FFF7BDFE0546042D08D1FF2F06D0344873
:1008000047810B200004FFF7B2FE0546042D0AD1F4
:100810000198FF2807D02E49019888810B200004F9
:10082000FFF7A5FE0546042D0AD10098FF2807D042
:1008300027490098C8810B200004FFF798FE054661
:10084000052D05D01F480069102188431D49086106
:100850002846FCBD30B5054604240B200004FFF7F4
:1008600086FE0446042C41D1164800692021084325
:10087000144908610846006940210843114908618C
:100880000B200004FFF773FE0446042C26D10D480C
:100890000069202188430B4908610846006910213E
:1008A0000843084908610A4805800B200004FFF747
:1008B0005EFE0446052C19D00248006910218843C9
:1008C000004909E00020024023016745AB89EFCDD4
:1008D00000F8FF1FFFFF0000086107E0052C05D0AE
:1008E000CB48006920218843C9490861204630BDB2
:1008F000F0B505460E46174604240B200004FFF70A
:1009000036FE0446042C19D1C14800691021084361
:10091000BF49086128463043F82139430843BD499F
:1009200048800B200004FFF722FE0446052C05D06A
:10093000B748006910218843B54908612046F0BDD9
:1009400030B5054604240B200004FFF710FE0446D2
:10095000042C16D1AE48006910210843AC49086147
:10096000EF202843AB4948800B200004FFF7FFFD30
:100970000446052C05D0A648006910218843A449E7
:100980000861204630BD30B5054604240B20000424
:10099000FFF7EDFD0446042C16D19D480069102197
:1009A00008439B490861F72028439A4948800B2057
:1009B0000004FFF7DCFD0446052C05D094480069CF
:1009C0001021884392490861204630BD30B5054664
:1009D00004240B200004FFF7CAFD0446042C16D1A2
:1009E0008B48006910210843894908617F2028430A
:1009F000884948800B200004FFF7B9FD0446052C08
:100A000005D0834800691021884381490861204648
:100A100030BD30B5054604240B200004FFF7A7FDC8
:100A20000446042C16D17A480069102108437849FD
:100A30000861DF202843774948800B200004FFF736
:100A400096FD0446052C05D07148006910218843A5
:100A50006F490861204630BD30B5054604240B209F
:100A60000004FFF784FD0446042C16D16848006991
:100A70001021084366490861BF2028436549488022
:100A80000B200004FFF773FD0446052C05D06048D9
:100A90000069102188435E490861204630BD30B5A9
:100AA000054604240B200004FFF761FD0446042CD6
:100AB00014D1574800691021084355490861554829
:100AC00045800B200004FFF752FD0446052C05D09D
:100AD0004F480069102188434D490861204630BDC8
:100AE00070B505460E4604240B200004FFF73FFDB9
:100AF0000446042C13D14648006910210843444998
:100B000008612E800B200004FFF731FD0446052C00
:100B100005D03F480069102188433D4908612046BF
:100B200070BD3B48C0690004000E70473848006A39
:100B30007047002905D0364A12690243344B1A61C6
:100B400004E0334A12698243314B1A61704701460F
:100B500000202F4AD2680A40002A01D0012000E07C
:100B6000002070472A49C860704730B50546042404
:100B7000FFF7CFFC0B200004FFF7F9FC0446042C20
:100B800043D1254822498860244888600846006986
:100B9000202108431E490861084600694021084396
:100BA0001B4908610B200004FFF7E1FC0446042CFC
:100BB00023D1174800691A490840154908610846B9
:100BC00000691021084312490861002D03D000205C
:100BD0001049088002E0A5200E4908800B2000047F
:100BE000FFF7C5FC0446052C0FD0094800690C49E5
:100BF000103108400649086107E0052C05D004487B
:100C000000690749084002490861204630BD0000DC
:100C10000020024000F8FF1F23016745AB89EFCD9C
:100C2000DF1F000010B504460920C006844209D128
:100C30000121480400F040FC00210120400400F0A4
:100C40003BFC3CE07448844208D10121000200F0E2
:100C500033FC0021200200F02FFC30E06F4884427A
:100C600008D10121000200F027FC0021200200F041
:100C700023FC24E06A48844209D10121080500F0E0
:100C80001BFC00210120000500F016FC17E0654860
:100C9000844208D10121400200F00EFC00216002D4
:100CA00000F00AFC0BE06048844208D1012188056D
:100CB00000F002FC00210120800500F0FDFB10BDCA
:100CC000F0B50A4600210023002400BF3DE00125C5
:100CD0008D402B4615681D402C469C4234D1157919
:100CE000012D02D01579022D16D185684F000326FB
:100CF000BE40B543856055794E00B54086683543A2
:100D00008560858801268E40B543858085889679E3
:100D10008E40B6B23543858005684F000326BE403D
:100D2000B543056015794E00B5400668354305604A
:100D3000C5684F000326BE40B543C560D5794E0057
:100D4000B540C6683543C560491C1029BFD3F0BD06
:100D50003649016000210171012141710021817139
:100D6000C171704708B5012212040092009A0A432B
:100D70000092009AC261C161009AC261C269009288
:100D8000C269009208BD02460020138A0B40002B66
:100D900001D0012000E0002070470146088A70471A
:100DA00002460020938A0B40002B01D0012000E076
:100DB000002070470146888A70478161704701852D
:100DC0007047002A01D0816100E00185704781826F
:100DD0007047F0B5002300244D07EE0E1546B540D0
:100DE0002B46CD10AE0005462035AD594E07F70E07
:100DF0000F26BE40B543CE10B60007462037BD5182
:100E0000CD10AE003D46AD591D432C46CD10AD0072
:100E10003E467451F0BD0000000400480008004840
:100E2000000C00480010004800140048FFFF0000BC
:100E3000FE48006801210843FC49086008464068F4
:100E4000FB490840F949486008460068F9490840EC
:100E5000F649086008460068012189048843F3497F
:100E60000860084640683F2109048843EF4948600C
:100E70000846C06A00090001C8620846006BEE49D6
:100E80000840EA4908630846406B40084000486350
:100E90000020886070470021E44A917011468870F4
:100EA000704710B50246002100230020511100298F
:100EB00002D1DE4C23680BE0012902D1DB4C236A0E
:100EC00006E0022902D1D94C636A01E0D74C636B7A
:100ED000D106C90E01248C401C40002C01D00120F9
:100EE00000E0002010BD38B500200090002400254F
:100EF00000BF1120FFF7D5FF05460098401C009069
:100F0000052109030098884201D0002DF1D011205D
:100F1000FFF7C7FF002801D0012400E0002420468D
:100F200038BD01460020C14A1068F82302469A43A2
:100F30001046CA001043BD4A10607047002806D012
:100F4000BA49096801221143B84A116005E0B7495E
:100F5000096849084900B54A1160704701460020F8
:100F6000B24A506BF82302469A431046CA00104317
:100F7000AE4A50637047002806D0AC49496B012245
:100F80001143AA4A516305E0A849496B4908490041
:100F9000A64A51637047002806D0A449496B042231
:100FA0009143A24A516305E0A049496B04221143D1
:100FB0009E4A516370479D49096A490849009B4A06
:100FC00011621146096A04229143984A116211463E
:100FD000096A0143116270479449096A18229143D2
:100FE000924A11621146096A014311627047002852
:100FF00006D08E49496A012211438C4A516205E0AC
:101000008A49496A49084900884A51627047874AB3
:1010100052687B23DB039A43844B5A601A4652681A
:1010200003460B431A43814B5A607047002807D090
:101030007E4909680122120611437C4A116006E0CC
:101040007A490968012212069143784A1160704773
:10105000002807D07549496B012212041143734AD5
:10106000516306E07149496B0122120491436F4AB2
:1010700051637047014600206C4AD06A00090001A4
:1010800002460A431046694AD0627047002807D0DA
:10109000664909680122D2041143644A116006E0DE
:1010A000624909680122D2049143604A1160704785
:1010B0005E49C8717047014600205C4A506880084C
:1010C000800002460A431046584A5060704757480D
:1010D00040680C210840704701460020534A506880
:1010E000F02302469A43104602460A4310464F4AEE
:1010F00050607047014600204C4A506807231B028D
:1011000002469A43104602460A431046474A506038
:10111000704746494968012292039143434A51600E
:101120001146496882B21143404A51601146096B29
:10113000921591433D4A11631146096B020C11430C
:101140003A4A116370473949096B40229143374A43
:1011500011631146096B0143116370473349096BF1
:1011600010229143314A11631146096B0143116307
:1011700070470021010F012906D12C4A126B9208F9
:1011800092002A4B1A6310E0022907D1274A126BFA
:1011900003231B049A43254B1A6306E0234A126B70
:1011A00003239B049A43214B1A63204A126B024388
:1011B0001E4B1A6370471D49096B802291431B4ADD
:1011C00011631146096B014311637047FEB5044674
:1011D000002500260020029001900090002713486F
:1011E00040680C2108400546002D06D0042D07D08C
:1011F000082D08D00C2D39D135E01048206038E09A
:101200000E48206035E0094840680F2189040840F5
:101210000646064840680321C90308400290B00C06
:10122000861C0298002810D105480BE000100240EF
:101230000CB8FFF8FFFFF6FEACFEF0FF00127A00DC
:1012400000093D00374647430BE0C248C06A00072B
:10125000000F401C0190C048019902F0DAFC704375
:101260000746276005E0BD48206002E0BA482060DC
:1012700000BF00BFB7484068F021084005462D096F
:10128000B748405D009020680099C8406060B14850
:10129000406807210902084005462D0AB048405D14
:1012A000009061680098C140A160AA48006BFF21CE
:1012B00001310840884202D0AA48E0600DE0A5480C
:1012C0004068012189030840884203D0A068400893
:1012D000E06002E0A0688008E0609E48006B40216A
:1012E0000840402802D0A048206102E00120C0034D
:1012F00020619848006B10210840102802D09648C1
:10130000606101E0206860619248006B8007800F97
:10131000002802D1A068A06119E08E48006B800708
:10132000800F012802D12068A06110E08948006B7D
:101330008007800F022802D18003A06107E0854862
:10134000006B8007800F032801D18348A06181488A
:10135000006B032109040840002802D1A068E06165
:1013600020E07C48006B03210904084001210904A6
:10137000884202D12068E06114E07648006B0321C6
:101380000904084001214904884202D18010E0612B
:1013900008E07048006B032109040840884201D12D
:1013A0006D48E0616B48006B032189040840002808
:1013B00002D1A068206220E06648006B0321890406
:1013C000084001218904884202D12068206214E08B
:1013D0006048006B0321890408400121C904884248
:1013E00002D10011206208E05A48006B03218904F1
:1013F0000840884201D1584820625648006B80213D
:101400000840802802D05548606200E06762FEBD57
:101410005049096A01434F4A11627047002807D0BA
:101420004C49096A0122D20311434A4A116206E07B
:101430004849096A0122D2039143464A1162704722
:10144000002807D04349096A012212041143414A86
:10145000116206E03F49096A0122120491433D4AA4
:1014600011627047002905D03A4A52690243394B4C
:101470005A6104E0374A52698243364B5A617047D9
:10148000002905D0334A92690243324B9A6104E045
:10149000304A926982432F4B9A617047002905D0E8
:1014A0002C4AD26902432B4BDA6104E0294AD26903
:1014B0008243284BDA617047002905D0254A926A99
:1014C0000243244B9A6204E0224A926A8243214BEF
:1014D0009A627047002905D01E4AD26802431D4B0C
:1014E000DA6004E01B4AD26882431A4BDA60704724
:1014F000002905D0174A12690243164B1A6104E00D
:10150000144A12698243134B1A617047002905D0AF
:10151000104A527A02430F4B5A7204E00D4A527A33
:1015200082430C4B5A7270470A48406A01210906EF
:10153000084308494862704701460020054A9268FE
:101540000A40002A01D0012000E000207047014934
:10155000887270470010024000127A00006CDC02B2
:1015600000000020809FD5001280000010B50446C6
:10157000F748844208D10121C014FFF7ABFF0021D6
:10158000E014FFF7A7FF62E001208007844208D142
:1015900001210846FFF7ACFF00210120FFF7A8FF5B
:1015A00055E0EC48844208D101210220FFF7A0FF5A
:1015B00000210220FFF79CFF49E0E748844208D160
:1015C00001211020FFF794FF00211020FFF790FF6A
:1015D0003DE0E248844208D101212020FFF788FF46
:1015E00000212020FFF784FF31E0DD48844208D14C
:1015F00001218015FFF77CFF0021A015FFF778FF80
:1016000025E0D848844209D101210804FFF762FF90
:10161000002101200004FFF75DFF18E0D24884425A
:1016200009D101214804FFF755FF002101204004A2
:10163000FFF750FF0BE0CD48844208D10121880418
:10164000FFF748FF002101208004FFF743FF10BD92
:1016500000220288BE4B984206D001239B07984285
:1016600002D0BC4B984203D1C14B1A404B881A435D
:10167000B94B984203D0BF4B1A400B891A430280E2
:101680004B68C3620B880385B14B984208D0B54BB9
:10169000984205D0B44B984202D0B44B984201D145
:1016A0008B7A03860123838270470021C9434160FE
:1016B0000021018001814180817270470185828211
:1016C00070470A4600210188A94B19400B46134375
:1016D00019460180704741627047C16270470146F8
:1016E000486A70470146088D7047002904D0028877
:1016F00002231A43028004E002889D4B6E331A4095
:1017000002807047002904D0028804231A43028013
:1017100004E00288964B6C331A400280704700291F
:1017200004D0028880231A43028004E00288904B90
:10173000103B1A400280704702888D4B68331A4074
:10174000028002880A43028070470288894B1A404F
:10175000028002880A4302807047002904D0028870
:1017600001231A43028004E00288814B6F331A4040
:10177000028070470A884B881A438B881A43CB88AB
:101780001A430B891A434B891A438B891A43442302
:101790001A5270470021018041808180C1800181FF
:1017A000418181817047002907D04422125A0123C8
:1017B000DB031A4344231A5205E04422125A53040D
:1017C0005B0C44221352704770B5002400220023A2
:1017D000058C674E6F3635400584028C8388048BF8
:1017E000634D2C40B51E2C400D882C43751E2A409D
:1017F0008D892A434D882A43554DA84208D0594D1A
:10180000A84205D0584DA84202D0584DA84212D146
:10181000574D68352A40CD892A43554D6C352A40AD
:101820008D882A43524D903D2B40534D2B400D8ABD
:101830002B434D8A2B43838004838D684563028448
:1018400070BD70B5002400220023058C484E603620
:1018500035400584028C8388048B484D2C40454DCF
:101860002C400D782D062D0C2C43414D50352A402F
:101870008D892D052D0C2A434D882D052D0C2A43CD
:10188000334DA84202D0374DA8421CD13C4D2B40CD
:101890000D8AAD042D0C2B432D4DA84213D1344D90
:1018A000103D2A40CD892D052D0C2A43304D303571
:1018B0002A408D882D052D0C2A43324D2B404D8A10
:1018C000AD042D0C2B43838004838D6885630284D3
:1018D00070BD70B5002400220023058C244E903E7C
:1018E00035400584028C8388848B214D2C40204D0B
:1018F0006D352C400D882C431F4D2A400D7B2D0645
:101900002D0C2A438D782D062D0C2A43104DA8420C
:1019100017D11C4D2A408D7B2D062D0C2A43184DC6
:101920002A400D792D062D0C2A43174D2B40174DBB
:101930002B400D8A2D052D0C2B434D8A2D052D0C8A
:101940002B43838084838D68C563028470BD00004F
:10195000002C014000040040001000400014004032
:101960000020004000400140004401400048014088
:101970008FFF0000FFFC0000FFFD0000FF8F000054
:10198000FFFB0000FFF70000FFEF0000FFDF00009B
:1019900070B5002200230024058CF94E35400584E3
:1019A000038C8488828BF74D2A40F74D2A400D78AE
:1019B0002D062D0C2A43F54D2B400D7B2D072D0CAC
:1019C0002B438D782D072D0C2B43F14DA84205D1CB
:1019D000F04D2C400D8AAD052D0C2C438480828364
:1019E0008D680564038470BD002101804180818081
:1019F00081608181C18101824182704770B5034657
:101A0000002000241846183001258D40ACB21D8CF2
:101A1000A5431D84002901D0082909D14D1028189B
:101A200005687026B54305600568154305600DE03F
:101A30000D1F2D046D0C2818056807263603B543C5
:101A4000056005681606360C3543056070BD4163B8
:101A5000704781637047C1637047016470470A46ED
:101A60000021018BCC4B19400B46134319460183CF
:101A700070470A460021018BC24B194013061B0C0C
:101A80001943018370470A460021818BC24B1940DC
:101A90000B4613431946818370470A460021818B08
:101AA000B84B194013061B0C19438183704700295A
:101AB00004D0828801231A43828004E08288B64BD6
:101AC0006F331A40828070470A460021018BB24B67
:101AD000683319400B4613431946018370470A4681
:101AE0000021018BAD4B194013061B0C19430183D8
:101AF00070470A460021818BA74B683319400B467B
:101B000013431946818370470A460021818BA34BFA
:101B1000194013061B0C1943818370470A460021A4
:101B2000018B9D4B6C3319400B46134319460183BF
:101B300070470A460021018B994B194013061B0C74
:101B40001943018370470A460021818B924B6C3305
:101B500019400B4613431946818370470A460021FA
:101B6000818B8F4B194013061B0C194381837047DF
:101B70000A460021018B884B103B19400B4613434A
:101B80001946018370470A460021018B4904490C1C
:101B900013061B0C1943018370470A460021818BF1
:101BA0007D4B103B19400B46134319468183704708
:101BB0000A460021818B4904490C13061B0C19436A
:101BC000818370470A460021018C734B6E331940A4
:101BD0000B4613431946018470470A460021018CC5
:101BE0006D4B683319400B46134319460184704707
:101BF0000A460021018C684B5033194013051B0C19
:101C00001943018470470A460021018C624B103B46
:101C1000194013051B0C1943018470470A46002123
:101C2000018C604B194013061B0C1943018470474B
:101C30000A460021018C594B194013061B0C19430D
:101C4000018470470A460021018C504B194013074C
:101C50001B0C19430184704702894F4B68331A40AB
:101C6000028102890A430281704730B500230124B2
:101C70008C40A3B2048C9C430484048C15468D4094
:101C8000ADB22C43048430BD30B5002304248C4015
:101C9000A3B2048C9C430484048C15468D40ADB2E1
:101CA0002C43048430BD002904D0828804231A43C5
:101CB000828004E08288384B6C331A4082807047FF
:101CC000828B394B1A408283828B0B061B0C1A4382
:101CD00082837047F8B50C46002100250026009647
:101CE000068C274F3E400684818B058C2607360CD8
:101CF00000962E4E31401606360C31431E07360C28
:101D000031432B4E354001273F03009E3E43354370
:101D100081830584F8BD828B1F4B64331A40828314
:101D2000828B0A4382837047F8B50C460021002558
:101D300000260096068C184F903F3E400684818B0B
:101D4000058C2606360C0096134E833E31401E0548
:101D5000360C16433143174E3540FF270137009E9E
:101D60003E43354381830584F8BD028B0E4B1A40F8
:101D70000283028B0B061B0C1A4302837047000080
:101D8000FFEF0000FF8F0000FFFC0000FFDF0000FE
:101D9000002C0140FFBF00008FFF0000FFF7000094
:101DA000FFFB0000FFFD0000FFF30000FF0C000040
:101DB000FF5F0000FFF50000F8B50C46002100258C
:101DC00000260096068CE64F3E400684018B058C6B
:101DD0002605360C0096E34E31401E07360C314383
:101DE0001606360C3143DE4E903E35401027009EDD
:101DF0003E43354301830584F8BD028BD84B1B1D40
:101E00001A400283028B0A4302837047F0B50C46E6
:101E100000210025068CD24F0F373E400684018BEF
:101E2000058CCF4EE33E31401E05360C1643314340
:101E3000CB4EB61D3540012626433543018305842C
:101E4000F0BD70B505460C46208800280AD12389CC
:101E5000A28861882846FFF7D9FFE1882846FFF766
:101E6000CCFF25E0208804280AD12389A288618834
:101E70002846FFF7A1FFE1882846FFF776FF17E025
:101E8000208808280AD12389A28861882846FFF77C
:101E90004BFFE1882846FFF73EFF09E02389A2882F
:101EA00061882846FFF716FFE1882846FFF708FFFC
:101EB00070BD002101804180012181800021C1800D
:101EC00001817047F8B505460C4600260127608859
:101ED000002801D1022600E00026A088012801D1B7
:101EE000022700E001272088002814D12389A28836
:101EF00061882846FFF78AFFE1882846FFF77DFFC3
:101F000023893A4631462846FFF756FFE18828469E
:101F1000FFF72BFF13E02389A28861882846FFF78B
:101F20004BFFE1882846FFF720FF23893A463146D8
:101F30002846FFF76BFFE1882846FFF75EFFF8BDF4
:101F40000146486B70470146886B70470146C86B75
:101F500070470146086C7047002A03D083890B4301
:101F6000838102E083898B4383817047818270473C
:101F700002460020138A0B40002B01D0012000E014
:101F800000207047CA430282704730B502460020E5
:101F900000230024158A0D402B4695890D402C46C0
:101FA000002B03D0002C01D0012000E0002030BD28
:101FB000CA430282704710B50B461343482423528C
:101FC00010BD002A03D083890B43838102E08389FB
:101FD0008B4383817047002904D0828808231A43E9
:101FE000828004E082885E4B08331A40828070470A
:101FF00001895B4A09321140018170470A4600217C
:102000000189574B603B19400B4613431946018128
:10201000704730B504460D4629462046FFF7EEFFCF
:10202000208907210843208130BDF8B504460D46BC
:1020300016461F46602D06D13B46012231462046FA
:10204000FFF7BAFE05E03B46012231462046FFF786
:10205000DDFE29462046FFF7D1FF208907210843EE
:102060002081F8BD30B50C4600210189C9B21D069A
:102070002D0C154325432943018130BDFFB505468D
:102080000E46174600243A4631462846039BFFF782
:10209000E9FF2C89324809300440072004433048C6
:1020A00060380440702004432C81FFBDF0B5044625
:1020B0000D4616461F463B46324629462046FFF748
:1020C000D1FF20890121890308432081F0BD828846
:1020D000234B603B1A40828082880A43828070478B
:1020E00002891F4B09331A40028102890A43028187
:1020F000704702891A4B703B1A40028102890A43D9
:1021000002817047F0B50C460021002500260189A8
:10211000058B068C124F093739400F462743394645
:10212000114F3D40FF2702373D430D4F9A3F3E4040
:102130001F053F0C17433E43018105830684F0BD14
:10214000002904D0828880231A43828004E0828898
:10215000034B703B1A4082807047502211527047E7
:10216000EFFF0000FF0C0000FCFC000010B504466F
:10217000F848844209D101218803FFF7ABF9002117
:1021800001208003FFF7A6F956E0F348844209D105
:1021900001214804FFF7ACF9002101204004FFF7BA
:1021A000A7F949E0ED48844209D101218804FFF7ED
:1021B0009FF9002101208004FFF79AF93CE0E848EC
:1021C000844209D10121C804FFF792F900210120BE
:1021D000C004FFF78DF92FE0E248844209D10121C4
:1021E0000805FFF785F9002101200005FFF780F9B8
:1021F00022E0DD48844208D101212020FFF76AF95E
:1022000000212020FFF766F916E0D848844208D163
:1022100001214020FFF75EF900214020FFF75AF925
:102220000AE0D348844207D101218020FFF752F908
:1022300000218020FFF74EF910BDF0B58BB00446A9
:102240000D46002700200A90002620684008400024
:102250002060666803210903304688430646A86863
:10226000064366602668C3480640E9686868084314
:102270002969084306432660A668032109023046FF
:102280008843064668690643A6606846FEF79EFFD7
:10229000B048844202D106980A900DE0AE488442CC
:1022A00002D107980A9007E0AC48844202D108980E
:1022B0000A9001E002980A9020680121C9030840B1
:1022C00000280CD029680A9A500001F0A2FC0746A9
:1022D00029680A9A500001F09CFC0E4609E0296822
:1022E0000A9801F096FC074629680A9801F091FCCB
:1022F0000E4628684008B04200D87F1C20680121A3
:10230000C9030840002806D03807460F38469A49C6
:10231000084030430746A7810BB0F0BD4B21C901EF
:102320000160002141608160C1600C2101610021D8
:102330004161704710B5002242680F242402134601
:10234000A3431A464C680B6823438C682343CC682C
:1023500023431A43426010BD002101604160816047
:10236000C1607047002904D0026801231A4302604B
:1023700003E002685208520002607047002A03D04E
:1023800003680B43036002E003688B4303607047FC
:10239000002905D002680123DB031A43026004E030
:1023A00002680123DB039A4302607047002905D0CD
:1023B00082680123DB021A43826004E08268012301
:1023C000DB029A4382607047002905D042680123EE
:1023D000DB041A43426004E042680123DB049A43B1
:1023E00042607047002905D0426801239B041A43CC
:1023F000426004E0426801239B049A4342607047B4
:10240000002A03D043680B43436002E043688B43D8
:1024100043607047002905D042680123DB031A435B
:10242000426004E042680123DB039A434260704744
:10243000002905D042680123DB051A43426004E00D
:1024400042680123DB059A43426070474269120EDD
:102450001206426142690A4342617047028AFF23C1
:102460001B021A400282028A0A4302827047002934
:1024700004D0026802231A43026003E002680223C8
:102480009A4302607047826803231B059A43826067
:1024900082680A4382607047002905D042680123A0
:1024A0001B051A43426004E0426801231B059A435E
:1024B00042607047426803235B059A43426042686A
:1024C0000A4342607047CA05D20D02857047014633
:1024D000888CC005C00D704742681202120A426023
:1024E00042680B061A4342607047002905D0026813
:1024F00001235B031A43026004E0026801235B03CB
:102500009A430260704702680123DB029A4302602B
:1025100002680A4302607047426810239A4342608F
:1025200042680A4342607047426820239A434260EF
:1025300042680A4342607047002905D0426801237F
:102540009B031A43426004E0426801239B039A43C1
:10255000426070470038014000440040004800409D
:10256000004C0040005000400014014000180140A1
:10257000001C0140F3E9FFFFF0FF0000002904D038
:10258000826808231A43826003E0826808239A4322
:1025900082607047028AD2B20282028A0B021A4318
:1025A00002827047002904D0826820231A43826087
:1025B00003E0826820239A4382607047002904D098
:1025C000826810231A43826003E0826810239A43D2
:1025D00082607047826807235B049A438260826846
:1025E0004B041A438260704742691202120A426128
:1025F00042690B061A4342617047826804239A437A
:10260000826082680A4382607047002904D0826831
:1026100002231A43826003E0826802239A438260A5
:102620007047002905D0826801239B031A4382600A
:1026300004E0826801239B039A43826070478268AA
:102640000123DB039A43826082680A4382607047F9
:1026500002681F235B059A43026002684B051A4318
:102660000260704702681F231B049A4302600268DD
:102670000B041A4302607047002A03D083680B439F
:10268000836002E083688B43836070478268012324
:102690005B039A43826082680A4382607047F8B5A0
:1026A00003460024002600960025002018460E044C
:1026B000340ECEB200960127009EB7403D46022C54
:1026C00001D1001D02E0032C00D10830002A03D004
:1026D00006682E43066002E00668AE430660F8BD59
:1026E000002A03D0038B0B43038302E0038B8B434D
:1026F00003837047826801231B039A4382608268C8
:102700000A438260704702460020D3690B40002BC9
:1027100001D0012000E0002070470162704770B5D1
:1027200002460B4600240021002500201E04350E21
:10273000D9B201268E403146012D02D116683140B2
:1027400006E0022D02D15668314001E09668314022
:102750001C0C0126A6403446D6693440002903D01B
:10276000002C01D0012000E0002070BD10B5002336
:1027700000220B0C01249C402246026210BD000086
:1027800000218278002A27D0274A03231B02D2186F
:1027900003789B109B00D15802789207D30EFF223A
:1027A0009A400B469343194642789207120E0378DB
:1027B0009B07DB0E9A4011431B4A03231B02D218CE
:1027C00003789B109B00D1500278D306DB0E0122C8
:1027D0009A40154B1A6007E00278D306DB0E0122FF
:1027E0009A40114B80331A607047002905D00F4A78
:1027F000126902430D4B1A6104E00C4A12698243CC
:102800000A4B1A617047042806D109490969042254
:102810001143074A116105E0054909690422914302
:10282000034A11617047000000E100E000ED00E0A4
:1028300000E000E03A483B490860002048608860BA
:10284000C860394848617047002136498279002ABA
:1028500035D00A46126803689A430B461A600A4646
:10286000526803689A430B465A60027951180A6805
:1028700003681A430A602B4A926803689A43294BFB
:102880009A601A46D26803689A43264BDA60427906
:10289000102A0CD11A46926803681A43214B9A6099
:1028A0001A46D26803681A431E4BDA600DE01D49D0
:1028B000427951180A6803681A430A6005E00279F0
:1028C00051180A6803689A430A6070470021016042
:1028D00001710C2141710021817170471149096911
:1028E0000143104A11617047014600200D4A5269A8
:1028F0000A40002A01D0012000E000207047094969
:102900004861704701460020064A52690A40002A81
:1029100001D0012000E00020704702494861704763
:102920000000940F00040140FFFF6B004548006861
:102930008007800F434908600020886000214148DB
:10294000C160016141618069FF21013108433D4956
:1029500088617047014600203A4A1068800880006C
:1029600002460A431046374A10607047002905D0D6
:10297000344A12680243334B1A6004E0314A126849
:102980008243304B1A607047002905D02D4A1268E7
:1029900002432C4B1A6004E02A4A12688243294BF6
:1029A0001A60704727490968C0229143254A11607F
:1029B0001146096801431160704730B500228B074A
:1029C0001C0F0F23A3401A461E4B08338C10A40083
:1029D0001B5993431B4C08348D10AD0063512346A3
:1029E0008C10A4001B598C07250F0446AC402343D0
:1029F000144C08348D10AD00635130BD01461148B0
:102A000080300A0E920080580A02120A1040704765
:102A10000C49896901430B4A9161704701460020C6
:102A2000084A9269FF2301331A40002A01D001208D
:102A300000E000207047034989690143014A916120
:102A400070470000000001400CB50020019000908C
:102A5000734800680121090408437149086000BFF8
:102A60006F48006801214904084000900198401C0B
:102A700001900098002804D105210903019888429B
:102A8000EED167480068012149040840002802D0BF
:102A90000120009001E0002000900098012839D129
:102AA0001120604908605E4840685D4948600846FA
:102AB00040684860084640687F21C90388435849F8
:102AC0004860084640681121090408435449486099
:102AD000084600680121090608435149086000BF03
:102AE0004F4800680121490608400028F8D04C48AA
:102AF0004068800880004A494860084640680221D2
:102B000008434749486000BF454840680C210840D9
:102B10000828F9D10CBD10B54148006801210843CF
:102B20003F490860084640683F4908403C494860C2
:102B3000084600683D490840394908600846006871
:102B400001218904884336490860084640683F21CE
:102B500009048843324948600846C06A00090001F8
:102B6000C8620846006BFF21533188432C49086333
:102B70000846406B40084000486300208860FFF72B
:102B800063FF10BDF8B50025002400260027244867
:102B900040680C2108400546002D04D0042D06D0C5
:102BA000082D2AD107E022482249086029E0204860
:102BB0002049086025E01A4840680F218904084030
:102BC0000446174840680321C90308400646A00C84
:102BD000841C002E04D118486043164908600BE09D
:102BE0000F48C06A0007000F471C3946104801F023
:102BF00010F860430F49086003E00D480D49086074
:102C000000BF00BF06484068F021084000090B499A
:102C10000D5C08480068E84006490860F8BD0000FF
:102C200000100240002002400CB8FFF8FFFFF6FE43
:102C300000127A001000002000093D00140000205E
:102C400010B500F0BBF800F0A5F800F0BDFA00F0F8
:102C500000F900F088F800F085FA00F09EF910BD48
:102C60001CB50420009000216846017103214171C8
:102C70000221C17169464248FEF722F80220009005
:102C800069463F48FEF71CF81CBD1CB5FF200090AC
:102C9000012168460171032141710021C171FF21A9
:102CA0000920C006FEF789F869460920C006FEF72C
:102CB00007F83F2000903F213248FEF77EF8694632
:102CC0003048FDF7FDFF3020009030212E48FEF700
:102CD00074F869462C48FDF7F3FF1CBD1CB57F2036
:102CE000C00000900121684601710321417100215B
:102CF00081710121C17169462148FDF7E1FF04207E
:102D0000009069462148FDF7DBFF0120C0030090D9
:102D100069460920C006FDF7D3FF80200090694670
:102D20001948FDF7CDFF3F20800200906946154805
:102D3000FDF7C6FF7F21C9001148FEF73EF80421C8
:102D40001248FEF73AF80121C9030920C006FEF730
:102D500034F880210C48FEF730F83F2189020948F9
:102D6000FEF72BF81CBD10B501210948FEF77AFBD0
:102D7000FFF7B4FFFFF789FFFFF772FF10BD0000F8
:102D8000000400480008004800140048000C0048F7
:102D900001005E0008B51B216846017000214170EA
:102DA00001218170FFF7ECFC1021684601700221BF
:102DB000417001218170FFF7E3FC08BD10B58AB0B6
:102DC0000120FEF763F90120FEF765F8FEF78BF8A6
:102DD0000446012C1FD1FDF781FB0020FEF77CF992
:102DE0000020FEF787F921050811FEF710F90120F0
:102DF000FEF71CF900BF1920FEF753F80028FAD09F
:102E00000220FEF758F96846FEF7E0F900BFFEF72A
:102E10005EF90828FBD10AB010BD00000EB50021F4
:102E2000684681727D20C000019030216846018093
:102E300000210181418069463048FEF709FC0122EA
:102E400011462E48FFF788F801212C48FEF785FC33
:102E50000EBD10B501211220FEF720FBFFF7DEFFAB
:102E600010BD10B5002401212448FFF78EF800287A
:102E70002AD02348406A2349884204D22048406A25
:102E8000401C1F4948621E4800881E49884204DAD7
:102E90001B480088401C1A490880002412E0610089
:102EA0001748801C405A1749884209DA61001448C3
:102EB000801C405A401C81B262001148801C815223
:102EC000601CC4B2102CEADB01210C48FFF770F83B
:102ED00010BD0EB5302168460180002141807D2063
:102EE000C00001906846018169460748FEF7B0FBC3
:102EF00001210548FEF713FC0EBD00000004004050
:102F000048000020F0FF000000100040F0B58BB03A
:102F100007460C4615461E463846FDF779F90094DB
:102F200001950020029003960490802005900020D7
:102F300006900790202008900320000309900020AD
:102F40000A9069463846FDF70EFA01213846FDF72A
:102F500034FA0BB0F0BDF0B58BB007460C46154601
:102F60001E4601210846FEF77DFA009401951020C7
:102F70000290039600200490802005900020069087
:102F80000790089003200003099000200A906946EA
:102F90003846FDF7E8F90BB0F0BD00B589B0012166
:102FA0008803FEF76DFA01220921C806FDF711FF1B
:102FB00001220A210920C006FDF70BFF01220C2186
:102FC0000920C006FDF705FF0B20400201900221F9
:102FD0006846017203214172002181720121C17290
:102FE00001A90920C006FDF76BFE01214D48FFF73E
:102FF000CFF94D480390002004900590069008906A
:103000000C20079003A94748FFF717F9012145480D
:10301000FFF707FB1F214348FFF71AFB0021414838
:10302000FFF70DFB012241493E48FFF738FB012223
:10303000C0213C48FFF720FB01213A48FFF792F9F5
:1030400040213848FFF769FB1E23394A35492831AA
:103050003848FFF780FF1E23354A1E3A3149243194
:1030600034481430FFF752FF09B000BD026852081F
:10307000520002604160026801231A4302607047F7
:1030800070B504460D462020FDF7E2F900212948DD
:10309000FDF793F92A462146254800F059FD2946B7
:1030A0002448FFF7E3FF70BD08B510211D48FFF766
:1030B0002AFB002826D000211E481430FDF77DF998
:1030C0001C481430FDF79FF91E21081A18492039B1
:1030D000C8871E2117481430FFF7C8FF134911484D
:1030E000FFF744FB0F48C069C1B200910D48203082
:1030F0008088C1B200910E482038C08F052801DDBC
:1031000000F0ACFC09490748FFF730FB08210548EF
:10311000FFF7F9FA012803D108210248FFF7FDFA69
:1031200008BD000000380140808D5B0004010400F0
:10313000900000201C0002400EB5042001900021E8
:1031400068460172082141720021817201A8FFF7CF
:103150007BFB062168460170002141708170FFF7FA
:103160000FFB0EBD0EB501210846FEF789F90221BD
:103170000120FFF722FC0420019000216846017223
:10318000082141720121817201A8FFF75DFB062130
:10319000684601700021417001218170FFF7F0FA4B
:1031A0000EBD10B50420FFF7ADFB002809D00120AB
:1031B0000449487008460078401C08700420FFF756
:1031C000ACFB10BD7000002010B50420C043FFF719
:1031D0001AFB10BD10B50246302353431946DB17C6
:1031E0005B0F5B18DB107D24E4006343194C6361C3
:1031F0000021234699610121196100BF1549086921
:103200000109002901D1012100E00021C907C90FEE
:103210000029F3D10F4B1961996110BD014630228D
:103220004A43D2080B4B5A6100229A6101221A616B
:1032300000BF084A10690209002A01D1012200E0FA
:103240000022D207D20F002AF3D1024B1A619A61F1
:103250007047000000E000E010B500F0F1F800F069
:10326000A6F8FFF769FF00200149087310BD0000B0
:10327000310000201CB500245048007850490870E7
:103280004E4800784F4908704C4800784E49087005
:1032900002214E48FDF777FD01283DD10520FFF7BB
:1032A00099FF02214948FDF76EFD012802D100F087
:1032B000BFFB62E0022000900121684601710021FD
:1032C0008171032141710121C17169463F48FDF7B8
:1032D000F7FC3E48808A022188433C4988820024CA
:1032E00014E03A48808A02218843801C374988824A
:1032F0003220FFF793FF3548808A02218843334903
:1033000088823220FFF78AFF601CC4B22B48007805
:10331000401CA042E5DC30E002200090012168461C
:10332000017100218171032141710121C17169463F
:103330002648FDF7C5FC2548808A02218843234999
:103340008882002414E02148808A02218843801C5E
:103350001E4988823220FFF761FF1C48808A0221C3
:1033600088431A4988823220FFF758FF601CC4B294
:1033700012480078401CA042E5DC1CBD10B5282195
:10338000134800F044FC42210C4800F03EFC0DE0E4
:1033900000F00CFB09484078012802D000200C49BD
:1033A00008800B4800880A2800DD10BDF0E710B542
:1033B000FFF7E4FFFFF75EFF10BD00007000002084
:1033C00024000020310000204000002000040048BC
:1033D0004800002070B50246FF24FF2515488142B1
:1033E00001D9002070BD0AE01378521C6B405800D0
:1033F000114E305A0012604005465800345C0846B1
:10340000491E0028F0D128022043EBE730B50246E0
:103410000B46002009E001120406200C14784C40F1
:103420006400064D2C5B6040521C1C465B1E002C49
:10343000F1D130BD400D0300D63D0008D63F000855
:10344000002005E001214200FE4B9952411CC8B208
:103450001028F7DB7047FC48808A01214903884324
:10346000F94988820846808A012189038843F64900
:1034700088820846808A0121C9038843F2498882EC
:10348000F248808A10218843F04988820846808A61
:1034900080218843ED498882ED48808A0421884351
:1034A000EB498882E848808A012189028843E649FD
:1034B00088820920C006808A0121C9038843092126
:1034C000C9068882E148808A012149028843DF4990
:1034D00088820846808AFF2101318843DB4988823F
:1034E0000846808A40218843D84988820846808AD5
:1034F00020218843D54988820846808A082188434C
:10350000D2498882D048808A012109038843CE4964
:1035100088820846808A0121C9028843CA49888274
:10352000CC48808A80218843CA4988827047C6482F
:10353000808A0121490388434018C349888208468C
:10354000808A0121890388434018BF498882084640
:10355000808A0121C90388434018BB498882BB483F
:10356000808A102188431030B84988820846808AB2
:10357000802188438030B5498882B548808A0421FB
:103580008843001DB2498882AF48808A01218902A0
:1035900088434018AC4988820920C006808A0121EE
:1035A000C903884340180921C9068882A748808A30
:1035B0000121490288434018A44988820846808A2C
:1035C000FF21013188434018A04988820846808A3B
:1035D0004021884340309D4988820846808A2021C6
:1035E00088432030994988820846808A0821884388
:1035F0000830964988829448808A012109038843CB
:103600004018914988820846808A0121C90288436E
:1036100040188D4988828F48808A80218843803075
:103620008C498882704700B58B480088002800D0FC
:1036300000BD8A48406A8A49884205D9FFF777FF6A
:1036400000208649486207E08448406A8449C839B6
:10365000884201D9FFF7FFFE00BFE9E710B57E48B9
:103660000078C007C00F00280BD002210920C00637
:10367000FDF7A5FB0121C9030920C006FDF79FFB4B
:103680000AE002210920C006FDF797FB0121C903CA
:103690000920C006FDF791FB6F4800788007C00F36
:1036A000002809D020216848FDF789FB0121C902C3
:1036B0006548FDF784FB08E020216348FDF77DFBAA
:1036C0000121C9026048FDF778FB63480078400794
:1036D000C00F002809D001210920C006FDF76FFBAB
:1036E00004215B48FDF76BFB08E001210920C006BF
:1036F000FDF763FB04215648FDF75FFB5648007851
:103700000007C00F002808D010214F48FDF757FBD5
:1037100010214E48FDF753FB07E010214A48FDF702
:103720004CFB10214948FDF748FB4B480078C00688
:10373000C00F002809D080210920C006FDF73FFBFB
:1037400080214248FDF73BFB08E080210920C006AC
:10375000FDF733FB80213D48FDF72FFB3E48007805
:103760008006C00F00280AD040210920C006FDF7BE
:1037700026FB012149033448FDF721FB09E04021E4
:103780000920C006FDF719FB012149032E48FDF76A
:1037900014FB314800784006C00F00280AD02021D1
:1037A0000920C006FDF70BFB012189032648FDF720
:1037B00006FB09E020210920C006FDF7FEFA0121E1
:1037C00089032148FDF7F9FA234800780006C00F65
:1037D000002809D008211C48FDF7F1FA0121C9038E
:1037E0001948FDF7ECFA08E008211748FDF7E5FA5B
:1037F0000121C9031448FDF7E0FA17480088C00505
:10380000C00F002809D010210920C006FDF7D7FA03
:1038100080211048FDF7D3FA08E010210920C006E6
:10382000FDF7CBFA80210B48FDF7C7FA0A4800885C
:103830008005C00F00281AD020210648FDF7BFFAE6
:1038400001210FE0B20000200008004800040048F9
:10385000000C004800140048B00000204800002080
:103860005014000089025B48FDF7A9FA08E0202106
:103870005948FDF7A2FA012189025648FDF79DFA41
:10388000564800884005C00F002809D01021524832
:10389000FDF795FA012109034E48FDF790FA08E07B
:1038A00010214D48FDF789FA012109034948FDF728
:1038B00084FA4A4800880005C00F002809D0082172
:1038C0000920C006FDF77BFA08214548FDF777FA85
:1038D00008E008210920C006FDF76FFA08214048DA
:1038E000FDF76BFA3D480088C004C00F002809D0DE
:1038F00004210920C006FDF762FA20213848FDF7AF
:103900005EFA08E004210920C006FDF756FA2021DE
:103910003348FDF752FA314800888004C00F002870
:1039200008D004212B48FDF74AFA40212C48FDF726
:1039300046FA07E004212748FDF73FFA40212848CE
:10394000FDF73BFA254800884004C00F002809D045
:1039500002212048FDF733FAFF2101312048FDF70D
:103960002EFA08E002211B48FDF727FAFF2101315A
:103970001B48FDF722FA19480088C013002809D017
:1039800001211448FDF71BFA012149021448FDF7F3
:1039900016FA08E001210F48FDF70FFA012149024C
:1039A0000F48FDF70AFAFFF73EFE10BD00B50D48BF
:1039B000406AFF21F531884205D9FFF7B8FD0020A4
:1039C0000849486205E00748406AFA2801D9FFF72C
:1039D00042FD00BD0008004800140048B00000206F
:1039E000000400484800002010B50B214C48FFF7A8
:1039F000F1FC0446FF200002204000124849C87232
:103A00000C730D214648FFF73BFB10BD10B50D218F
:103A10004448FFF7DFFC0446FF200002204000126C
:103A2000404948738C730F213E48FFF729FB10BDB6
:103A300010B53D4800783D49087105213B48FFF726
:103A4000C9FC0446FF20000220400012374948719B
:103A50008C7107213548FFF713FB10BD10B500240A
:103A60003148807830490978884258D12E48C0784A
:103A7000012802D0032841D119E02B4840790028C1
:103A800014D104212848801CFFF7A4FC0446FF2021
:103A900000022040011224488079814206D1E1B21F
:103AA0002148C079814201D1FFF79EFF27E01E48DF
:103AB0004079082821D11C48807917281DD10D2173
:103AC0001948801CFFF786FC0446FF2000022040B6
:103AD00001121548C07B81420FD1E1B21248007C2F
:103AE00081420AD11048817B407B0002081881B2D4
:103AF0000D4840300180FFF789FF00E000BF00BFA4
:103B00001E210948801C00F080F81E210848FCF79F
:103B100078FC00200449887000210348C17010BD62
:103B20002400002031000020700000204000002010
:103B300030000240FFF784F8FFF78EFB01E0FFF74B
:103B40008DFDFCE7704700BFFEE770477047704788
:103B5000F8B5042A2CD3830712D00B78491C0370C4
:103B6000401C521E83070BD00B78491C0370401C6D
:103B7000521E830704D00B78491C0370401C521E50
:103B80008B079B0F05D0C91ADF002023DE1B08C955
:103B90000AE0FCF7E7FAF8BD1D4608C9FD401C46DF
:103BA000B4402C4310C0121F042AF5D2F308C91ADE
:103BB000521EF0D40B78491C0370401C521EEAD4EC
:103BC0000B78491C0370401C012AE4D40978017069
:103BD000F8BD01E004C0091F0429FBD28B0701D501
:103BE0000280801CC90700D00270704700290BD0EA
:103BF000C30702D00270401C491E022904D3830768
:103C000002D50280801C891EE3E70022EEE7002235
:103C1000DFE7002203098B422CD3030A8B4211D326
:103C200000239C464EE003460B433CD4002243084D
:103C30008B4231D303098B421CD3030A8B4201D33D
:103C400094463FE0C3098B4201D3CB01C01A5241D5
:103C500083098B4201D38B01C01A524143098B4225
:103C600001D34B01C01A524103098B4201D30B010E
:103C7000C01A5241C3088B4201D3CB00C01A524133
:103C800083088B4201D38B00C01A524143088B42F8
:103C900001D34B00C01A5241411A00D20146524191
:103CA000104670475DE0CA0F00D04942031000D3B0
:103CB0004042534000229C4603098B422DD3030A05
:103CC0008B4212D3FC22890112BA030A8B420CD315
:103CD000890192118B4208D3890192118B4204D33E
:103CE00089013AD0921100E08909C3098B4201D3BE
:103CF000CB01C01A524183098B4201D38B01C01AF8
:103D0000524143098B4201D34B01C01A524103096E
:103D10008B4201D30B01C01A5241C3088B4201D31D
:103D2000CB00C01A524183088B4201D38B00C01ACA
:103D30005241D9D243088B4201D34B00C01A5241A1
:103D4000411A00D20146634652415B10104601D32E
:103D50004042002B00D54942704763465B1000D3B8
:103D6000404201B50020C046C04602BD70477047C2
:103D70007047754600F024F8AE4605006946534684
:103D8000C008C000854618B020B5FCF721FA60BC19
:103D900000274908B6460026C0C5C0C5C0C5C0C575
:103DA000C0C5C0C5C0C5C0C5403D49008D467047AF
:103DB00010B50446C046C0462046FCF7CCF910BDFD
:103DC00000487047D400002001491820ABBEFEE730
:103DD0002600020070470000C0C1C1810140C3013C
:103DE00003C00280C241C60106C00780C74105006A
:103DF000C5C1C4810440CC010CC00D80CD410F0071
:103E0000CFC1CE810E400A00CAC1CB810B40C9018F
:103E100009C00880C841D80118C01980D9411B00C9
:103E2000DBC1DA811A401E00DEC1DF811F40DD01E7
:103E30001DC01C80DC411400D4C1D5811540D701C0
:103E400017C01680D641D20112C01380D341110091
:103E5000D1C1D0811040F00130C03180F141330038
:103E6000F3C1F28132403600F6C1F7813740F501E7
:103E700035C03480F4413C00FCC1FD813D40FF0170
:103E80003FC03E80FE41FA013AC03B80FB41390011
:103E9000F9C1F88138402800E8C1E9812940EB01E7
:103EA0002BC02A80EA41EE012EC02F80EF412D0069
:103EB000EDC1EC812C40E40124C02580E5412700C0
:103EC000E7C1E68126402200E2C1E3812340E1010F
:103ED00021C02080E041A00160C06180A141630059
:103EE000A3C1A28162406600A6C1A7816740A50167
:103EF00065C06480A4416C00ACC1AD816D40AF0170
:103F00006FC06E80AE41AA016AC06B80AB41690090
:103F1000A9C1A88168407800B8C1B9817940BB01C6
:103F20007BC07A80BA41BE017EC07F80BF417D00E8
:103F3000BDC1BC817C40B40174C07580B5417700BF
:103F4000B7C1B68176407200B2C1B3817340B1018E
:103F500071C07080B041500090C191815140930177
:103F600053C052809241960156C0578097415500E8
:103F700095C1948154409C015CC05D809D415F006F
:103F80009FC19E815E405A009AC19B815B4099010E
:103F900059C058809841880148C0498089414B00E8
:103FA0008BC18A814A404E008EC18F814F408D0166
:103FB0004DC04C808C41440084C1858145408701BF
:103FC00047C046808641820142C043808341410010
:103FD00081C1808140400000211042206330844034
:103FE000A550C660E770088129914AA16BB18CC1C8
:103FF000ADD1CEE1EFF13112100273325222B5523F
:104000009442F772D662399318837BB35AA3BDD317
:104010009CC3FFF3DEE36224433420040114E6640E
:10402000C774A44485546AA54BB528850995EEE567
:10403000CFF5ACC58DD55336722611163006D7761E
:10404000F6669556B4465BB77AA719973887DFF7B7
:10405000FEE79DD7BCC7C448E5588668A7784008E6
:10406000611802282338CCC9EDD98EE9AFF9488907
:1040700069990AA92BB9F55AD44AB77A966A711A7E
:10408000500A333A122AFDDBDCCBBFFB9EEB799B57
:10409000588B3BBB1AABA66C877CE44CC55C222CCE
:1040A000033C600C411CAEED8FFDECCDCDDD2AADA7
:1040B0000BBD688D499D977EB66ED55EF44E133E5E
:1040C000322E511E700E9FFFBEEFDDDFFCCF1BBFF7
:1040D0003AAF599F788F8891A981CAB1EBA10CD1D1
:1040E0002DC14EF16FE18010A100C230E3200450D9
:1040F000254046706760B9839893FBA3DAB33DC34C
:104100001CD37FE35EF3B1029012F322D232354228
:10411000145277625672EAB5CBA5A89589856EF5DB
:104120004FE52CD50DC5E234C324A0148104667478
:10413000476424540544DBA7FAB79987B8975FE72B
:104140007EF71DC73CD7D326F2369106B0165766C8
:104150007676154634564CD96DC90EF92FE9C899B3
:10416000E9898AB9ABA94458654806782768C01818
:10417000E1088238A3287DCB5CDB3FEB1EFBF98B8B
:10418000D89BBBAB9ABB754A545A376A167AF10A68
:10419000D01AB32A923A2EFD0FED6CDD4DCDAABD9B
:1041A0008BADE89DC98D267C076C645C454CA23CB8
:1041B000832CE01CC10C1FEF3EFF5DCF7CDF9BAF6B
:1041C000BABFD98FF89F176E367E554E745E932E08
:1041D000B23ED10EF01E0000F841000800000020A1
:1041E0004800000004010008404200084800002088
:1041F000F004000020010008000000000102030498
:104200000102030406070809006CDC02000000003C
:10421000000000000102030406070809000200076D
:10422000170000001000000000000400081704023E
:104230000000000000000000000500000000000079
:04000005080000C12E
:00000001FF
